{
  "_format": "hh-sol-artifact-1",
  "contractName": "CarbonCreditToken",
  "sourceName": "contracts/CarbonCreditToken.sol",
  "abi": [
    {
      "inputs": [
        {
          "internalType": "address",
          "name": "_bufferPool",
          "type": "address"
        },
        {
          "internalType": "uint256",
          "name": "_approvalThreshold",
          "type": "uint256"
        }
      ],
      "stateMutability": "nonpayable",
      "type": "constructor"
    },
    {
      "inputs": [
        {
          "internalType": "address",
          "name": "spender",
          "type": "address"
        },
        {
          "internalType": "uint256",
          "name": "allowance",
          "type": "uint256"
        },
        {
          "internalType": "uint256",
          "name": "needed",
          "type": "uint256"
        }
      ],
      "name": "ERC20InsufficientAllowance",
      "type": "error"
    },
    {
      "inputs": [
        {
          "internalType": "address",
          "name": "sender",
          "type": "address"
        },
        {
          "internalType": "uint256",
          "name": "balance",
          "type": "uint256"
        },
        {
          "internalType": "uint256",
          "name": "needed",
          "type": "uint256"
        }
      ],
      "name": "ERC20InsufficientBalance",
      "type": "error"
    },
    {
      "inputs": [
        {
          "internalType": "address",
          "name": "approver",
          "type": "address"
        }
      ],
      "name": "ERC20InvalidApprover",
      "type": "error"
    },
    {
      "inputs": [
        {
          "internalType": "address",
          "name": "receiver",
          "type": "address"
        }
      ],
      "name": "ERC20InvalidReceiver",
      "type": "error"
    },
    {
      "inputs": [
        {
          "internalType": "address",
          "name": "sender",
          "type": "address"
        }
      ],
      "name": "ERC20InvalidSender",
      "type": "error"
    },
    {
      "inputs": [
        {
          "internalType": "address",
          "name": "spender",
          "type": "address"
        }
      ],
      "name": "ERC20InvalidSpender",
      "type": "error"
    },
    {
      "inputs": [
        {
          "internalType": "address",
          "name": "owner",
          "type": "address"
        }
      ],
      "name": "OwnableInvalidOwner",
      "type": "error"
    },
    {
      "inputs": [
        {
          "internalType": "address",
          "name": "account",
          "type": "address"
        }
      ],
      "name": "OwnableUnauthorizedAccount",
      "type": "error"
    },
    {
      "anonymous": false,
      "inputs": [
        {
          "indexed": true,
          "internalType": "address",
          "name": "owner",
          "type": "address"
        },
        {
          "indexed": true,
          "internalType": "address",
          "name": "spender",
          "type": "address"
        },
        {
          "indexed": false,
          "internalType": "uint256",
          "name": "value",
          "type": "uint256"
        }
      ],
      "name": "Approval",
      "type": "event"
    },
    {
      "anonymous": false,
      "inputs": [
        {
          "indexed": false,
          "internalType": "uint256",
          "name": "requestId",
          "type": "uint256"
        },
        {
          "indexed": false,
          "internalType": "address",
          "name": "verifier",
          "type": "address"
        }
      ],
      "name": "MintApproved",
      "type": "event"
    },
    {
      "anonymous": false,
      "inputs": [
        {
          "indexed": false,
          "internalType": "uint256",
          "name": "requestId",
          "type": "uint256"
        },
        {
          "indexed": false,
          "internalType": "address",
          "name": "ngo",
          "type": "address"
        },
        {
          "indexed": false,
          "internalType": "uint256",
          "name": "amount",
          "type": "uint256"
        }
      ],
      "name": "MintExecuted",
      "type": "event"
    },
    {
      "anonymous": false,
      "inputs": [
        {
          "indexed": false,
          "internalType": "uint256",
          "name": "requestId",
          "type": "uint256"
        },
        {
          "indexed": false,
          "internalType": "address",
          "name": "ngo",
          "type": "address"
        },
        {
          "indexed": false,
          "internalType": "uint256",
          "name": "amount",
          "type": "uint256"
        }
      ],
      "name": "MintRequested",
      "type": "event"
    },
    {
      "anonymous": false,
      "inputs": [
        {
          "indexed": true,
          "internalType": "address",
          "name": "previousOwner",
          "type": "address"
        },
        {
          "indexed": true,
          "internalType": "address",
          "name": "newOwner",
          "type": "address"
        }
      ],
      "name": "OwnershipTransferred",
      "type": "event"
    },
    {
      "anonymous": false,
      "inputs": [
        {
          "indexed": true,
          "internalType": "address",
          "name": "from",
          "type": "address"
        },
        {
          "indexed": true,
          "internalType": "address",
          "name": "to",
          "type": "address"
        },
        {
          "indexed": false,
          "internalType": "uint256",
          "name": "value",
          "type": "uint256"
        }
      ],
      "name": "Transfer",
      "type": "event"
    },
    {
      "anonymous": false,
      "inputs": [
        {
          "indexed": false,
          "internalType": "address",
          "name": "verifier",
          "type": "address"
        }
      ],
      "name": "VerifierAdded",
      "type": "event"
    },
    {
      "anonymous": false,
      "inputs": [
        {
          "indexed": false,
          "internalType": "address",
          "name": "verifier",
          "type": "address"
        }
      ],
      "name": "VerifierRemoved",
      "type": "event"
    },
    {
      "inputs": [
        {
          "internalType": "address",
          "name": "verifier",
          "type": "address"
        }
      ],
      "name": "addVerifier",
      "outputs": [],
      "stateMutability": "nonpayable",
      "type": "function"
    },
    {
      "inputs": [
        {
          "internalType": "address",
          "name": "owner",
          "type": "address"
        },
        {
          "internalType": "address",
          "name": "spender",
          "type": "address"
        }
      ],
      "name": "allowance",
      "outputs": [
        {
          "internalType": "uint256",
          "name": "",
          "type": "uint256"
        }
      ],
      "stateMutability": "view",
      "type": "function"
    },
    {
      "inputs": [],
      "name": "approvalThreshold",
      "outputs": [
        {
          "internalType": "uint256",
          "name": "",
          "type": "uint256"
        }
      ],
      "stateMutability": "view",
      "type": "function"
    },
    {
      "inputs": [
        {
          "internalType": "address",
          "name": "spender",
          "type": "address"
        },
        {
          "internalType": "uint256",
          "name": "value",
          "type": "uint256"
        }
      ],
      "name": "approve",
      "outputs": [
        {
          "internalType": "bool",
          "name": "",
          "type": "bool"
        }
      ],
      "stateMutability": "nonpayable",
      "type": "function"
    },
    {
      "inputs": [
        {
          "internalType": "uint256",
          "name": "requestId",
          "type": "uint256"
        }
      ],
      "name": "approveMint",
      "outputs": [],
      "stateMutability": "nonpayable",
      "type": "function"
    },
    {
      "inputs": [
        {
          "internalType": "address",
          "name": "account",
          "type": "address"
        }
      ],
      "name": "balanceOf",
      "outputs": [
        {
          "internalType": "uint256",
          "name": "",
          "type": "uint256"
        }
      ],
      "stateMutability": "view",
      "type": "function"
    },
    {
      "inputs": [],
      "name": "bufferPool",
      "outputs": [
        {
          "internalType": "address",
          "name": "",
          "type": "address"
        }
      ],
      "stateMutability": "view",
      "type": "function"
    },
    {
      "inputs": [
        {
          "internalType": "address",
          "name": "ngo",
          "type": "address"
        },
        {
          "internalType": "uint256",
          "name": "amount",
          "type": "uint256"
        }
      ],
      "name": "createMintRequest",
      "outputs": [],
      "stateMutability": "nonpayable",
      "type": "function"
    },
    {
      "inputs": [],
      "name": "decimals",
      "outputs": [
        {
          "internalType": "uint8",
          "name": "",
          "type": "uint8"
        }
      ],
      "stateMutability": "view",
      "type": "function"
    },
    {
      "inputs": [
        {
          "internalType": "uint256",
          "name": "",
          "type": "uint256"
        }
      ],
      "name": "mintRequests",
      "outputs": [
        {
          "internalType": "address",
          "name": "ngo",
          "type": "address"
        },
        {
          "internalType": "uint256",
          "name": "amount",
          "type": "uint256"
        },
        {
          "internalType": "uint256",
          "name": "approvals",
          "type": "uint256"
        },
        {
          "internalType": "bool",
          "name": "executed",
          "type": "bool"
        }
      ],
      "stateMutability": "view",
      "type": "function"
    },
    {
      "inputs": [],
      "name": "name",
      "outputs": [
        {
          "internalType": "string",
          "name": "",
          "type": "string"
        }
      ],
      "stateMutability": "view",
      "type": "function"
    },
    {
      "inputs": [],
      "name": "owner",
      "outputs": [
        {
          "internalType": "address",
          "name": "",
          "type": "address"
        }
      ],
      "stateMutability": "view",
      "type": "function"
    },
    {
      "inputs": [
        {
          "internalType": "address",
          "name": "verifier",
          "type": "address"
        }
      ],
      "name": "removeVerifier",
      "outputs": [],
      "stateMutability": "nonpayable",
      "type": "function"
    },
    {
      "inputs": [],
      "name": "renounceOwnership",
      "outputs": [],
      "stateMutability": "nonpayable",
      "type": "function"
    },
    {
      "inputs": [],
      "name": "requestCount",
      "outputs": [
        {
          "internalType": "uint256",
          "name": "",
          "type": "uint256"
        }
      ],
      "stateMutability": "view",
      "type": "function"
    },
    {
      "inputs": [
        {
          "internalType": "uint256",
          "name": "amount",
          "type": "uint256"
        }
      ],
      "name": "retireCredits",
      "outputs": [],
      "stateMutability": "nonpayable",
      "type": "function"
    },
    {
      "inputs": [],
      "name": "symbol",
      "outputs": [
        {
          "internalType": "string",
          "name": "",
          "type": "string"
        }
      ],
      "stateMutability": "view",
      "type": "function"
    },
    {
      "inputs": [],
      "name": "totalSupply",
      "outputs": [
        {
          "internalType": "uint256",
          "name": "",
          "type": "uint256"
        }
      ],
      "stateMutability": "view",
      "type": "function"
    },
    {
      "inputs": [
        {
          "internalType": "address",
          "name": "to",
          "type": "address"
        },
        {
          "internalType": "uint256",
          "name": "value",
          "type": "uint256"
        }
      ],
      "name": "transfer",
      "outputs": [
        {
          "internalType": "bool",
          "name": "",
          "type": "bool"
        }
      ],
      "stateMutability": "nonpayable",
      "type": "function"
    },
    {
      "inputs": [
        {
          "internalType": "address",
          "name": "from",
          "type": "address"
        },
        {
          "internalType": "address",
          "name": "to",
          "type": "address"
        },
        {
          "internalType": "uint256",
          "name": "value",
          "type": "uint256"
        }
      ],
      "name": "transferFrom",
      "outputs": [
        {
          "internalType": "bool",
          "name": "",
          "type": "bool"
        }
      ],
      "stateMutability": "nonpayable",
      "type": "function"
    },
    {
      "inputs": [
        {
          "internalType": "address",
          "name": "newOwner",
          "type": "address"
        }
      ],
      "name": "transferOwnership",
      "outputs": [],
      "stateMutability": "nonpayable",
      "type": "function"
    },
    {
      "inputs": [
        {
          "internalType": "address",
          "name": "",
          "type": "address"
        }
      ],
      "name": "verifiers",
      "outputs": [
        {
          "internalType": "bool",
          "name": "",
          "type": "bool"
        }
      ],
      "stateMutability": "view",
      "type": "function"
    }
  ],
  "bytecode": "0x608060405234801561001057600080fd5b50604051612937380380612937833981810160405281019061003291906103a3565b336040518060400160405280601181526020017f436172626f6e437265646974546f6b656e0000000000000000000000000000008152506040518060400160405280600381526020017f434354000000000000000000000000000000000000000000000000000000000081525081600390816100ae9190610629565b5080600490816100be9190610629565b505050600073ffffffffffffffffffffffffffffffffffffffff168173ffffffffffffffffffffffffffffffffffffffff16036101335760006040517f1e4fbdf700000000000000000000000000000000000000000000000000000000815260040161012a919061070a565b60405180910390fd5b6101428161024460201b60201c565b50600073ffffffffffffffffffffffffffffffffffffffff168273ffffffffffffffffffffffffffffffffffffffff16036101b2576040517f08c379a00000000000000000000000000000000000000000000000000000000081526004016101a990610782565b60405180910390fd5b600081116101f5576040517f08c379a00000000000000000000000000000000000000000000000000000000081526004016101ec906107ee565b60405180910390fd5b81600660006101000a81548173ffffffffffffffffffffffffffffffffffffffff021916908373ffffffffffffffffffffffffffffffffffffffff16021790555080600781905550505061080e565b6000600560009054906101000a900473ffffffffffffffffffffffffffffffffffffffff16905081600560006101000a81548173ffffffffffffffffffffffffffffffffffffffff021916908373ffffffffffffffffffffffffffffffffffffffff1602179055508173ffffffffffffffffffffffffffffffffffffffff168173ffffffffffffffffffffffffffffffffffffffff167f8be0079c531659141344cd1fd0a4f28419497f9722a3daafe3b4186f6b6457e060405160405180910390a35050565b600080fd5b600073ffffffffffffffffffffffffffffffffffffffff82169050919050565b600061033a8261030f565b9050919050565b61034a8161032f565b811461035557600080fd5b50565b60008151905061036781610341565b92915050565b6000819050919050565b6103808161036d565b811461038b57600080fd5b50565b60008151905061039d81610377565b92915050565b600080604083850312156103ba576103b961030a565b5b60006103c885828601610358565b92505060206103d98582860161038e565b9150509250929050565b600081519050919050565b7f4e487b7100000000000000000000000000000000000000000000000000000000600052604160045260246000fd5b7f4e487b7100000000000000000000000000000000000000000000000000000000600052602260045260246000fd5b6000600282049050600182168061046457607f821691505b6020821081036104775761047661041d565b5b50919050565b60008190508160005260206000209050919050565b60006020601f8301049050919050565b600082821b905092915050565b6000600883026104df7fffffffffffffffffffffffffffffffffffffffffffffffffffffffffffffffff826104a2565b6104e986836104a2565b95508019841693508086168417925050509392505050565b6000819050919050565b600061052661052161051c8461036d565b610501565b61036d565b9050919050565b6000819050919050565b6105408361050b565b61055461054c8261052d565b8484546104af565b825550505050565b600090565b61056961055c565b610574818484610537565b505050565b5b818110156105985761058d600082610561565b60018101905061057a565b5050565b601f8211156105dd576105ae8161047d565b6105b784610492565b810160208510156105c6578190505b6105da6105d285610492565b830182610579565b50505b505050565b600082821c905092915050565b6000610600600019846008026105e2565b1980831691505092915050565b600061061983836105ef565b9150826002028217905092915050565b610632826103e3565b67ffffffffffffffff81111561064b5761064a6103ee565b5b610655825461044c565b61066082828561059c565b600060209050601f8311600181146106935760008415610681578287015190505b61068b858261060d565b8655506106f3565b601f1984166106a18661047d565b60005b828110156106c9578489015182556001820191506020850194506020810190506106a4565b868310156106e657848901516106e2601f8916826105ef565b8355505b6001600288020188555050505b505050505050565b6107048161032f565b82525050565b600060208201905061071f60008301846106fb565b92915050565b600082825260208201905092915050565b7f42756666657220706f6f6c2063616e6e6f74206265207a65726f000000000000600082015250565b600061076c601a83610725565b915061077782610736565b602082019050919050565b6000602082019050818103600083015261079b8161075f565b9050919050565b7f5468726573686f6c64206d757374206265203e20300000000000000000000000600082015250565b60006107d8601583610725565b91506107e3826107a2565b602082019050919050565b60006020820190508181036000830152610807816107cb565b9050919050565b61211a8061081d6000396000f3fe608060405234801561001057600080fd5b50600436106101425760003560e01c80637d0eef61116100b857806395d89b411161007c57806395d89b4114610368578063a798283f14610386578063a9059cbb146103a4578063ca2dfd0a146103d4578063dd62ed3e146103f0578063f2fde38b1461042057610142565b80637d0eef61146102d857806387413123146102f65780638aa6e6de146103125780638da5cb5b1461032e5780639000b3d61461034c57610142565b8063313ce5671161010a578063313ce567146101ff578063424e65751461021d5780635badbe4c146102505780636c8244871461026e57806370a082311461029e578063715018a6146102ce57610142565b806306fdde0314610147578063095ea7b31461016557806318160ddd146101955780632039e339146101b357806323b872dd146101cf575b600080fd5b61014f61043c565b60405161015c919061188a565b60405180910390f35b61017f600480360381019061017a9190611945565b6104ce565b60405161018c91906119a0565b60405180910390f35b61019d6104f1565b6040516101aa91906119ca565b60405180910390f35b6101cd60048036038101906101c891906119e5565b6104fb565b005b6101e960048036038101906101e49190611a12565b61054b565b6040516101f691906119a0565b60405180910390f35b61020761057a565b6040516102149190611a81565b60405180910390f35b610237600480360381019061023291906119e5565b610583565b6040516102479493929190611aab565b60405180910390f35b6102586105e0565b60405161026591906119ca565b60405180910390f35b61028860048036038101906102839190611af0565b6105e6565b60405161029591906119a0565b60405180910390f35b6102b860048036038101906102b39190611af0565b610606565b6040516102c591906119ca565b60405180910390f35b6102d661064e565b005b6102e0610662565b6040516102ed91906119ca565b60405180910390f35b610310600480360381019061030b9190611945565b610668565b005b61032c600480360381019061032791906119e5565b6107e1565b005b610336610a2d565b6040516103439190611b1d565b60405180910390f35b61036660048036038101906103619190611af0565b610a57565b005b610370610b7e565b60405161037d919061188a565b60405180910390f35b61038e610c10565b60405161039b9190611b1d565b60405180910390f35b6103be60048036038101906103b99190611945565b610c36565b6040516103cb91906119a0565b60405180910390f35b6103ee60048036038101906103e99190611af0565b610c59565b005b61040a60048036038101906104059190611b38565b610d7f565b60405161041791906119ca565b60405180910390f35b61043a60048036038101906104359190611af0565b610e06565b005b60606003805461044b90611ba7565b80601f016020809104026020016040519081016040528092919081815260200182805461047790611ba7565b80156104c45780601f10610499576101008083540402835291602001916104c4565b820191906000526020600020905b8154815290600101906020018083116104a757829003601f168201915b5050505050905090565b6000806104d9610e8c565b90506104e6818585610e94565b600191505092915050565b6000600254905090565b6000811161053e576040517f08c379a000000000000000000000000000000000000000000000000000000000815260040161053590611c24565b60405180910390fd5b6105483382610ea6565b50565b600080610556610e8c565b9050610563858285610f28565b61056e858585610fbd565b60019150509392505050565b60006012905090565b60086020528060005260406000206000915090508060000160009054906101000a900473ffffffffffffffffffffffffffffffffffffffff16908060010154908060020154908060030160009054906101000a900460ff16905084565b60095481565b600a6020528060005260406000206000915054906101000a900460ff1681565b60008060008373ffffffffffffffffffffffffffffffffffffffff1673ffffffffffffffffffffffffffffffffffffffff168152602001908152602001600020549050919050565b6106566110b1565b6106606000611138565b565b60075481565b6106706110b1565b600073ffffffffffffffffffffffffffffffffffffffff168273ffffffffffffffffffffffffffffffffffffffff16036106df576040517f08c379a00000000000000000000000000000000000000000000000000000000081526004016106d690611c90565b60405180910390fd5b60008111610722576040517f08c379a000000000000000000000000000000000000000000000000000000000815260040161071990611c24565b60405180910390fd5b6009600081548092919061073590611cdf565b919050555060006008600060095481526020019081526020016000209050828160000160006101000a81548173ffffffffffffffffffffffffffffffffffffffff021916908373ffffffffffffffffffffffffffffffffffffffff1602179055508181600101819055507f32f62f6e38f01677299722b6f618d17026edcb8decf51f73dd4c6d8ffcebd74f60095484846040516107d493929190611d27565b60405180910390a1505050565b600a60003373ffffffffffffffffffffffffffffffffffffffff1673ffffffffffffffffffffffffffffffffffffffff16815260200190815260200160002060009054906101000a900460ff1661086d576040517f08c379a000000000000000000000000000000000000000000000000000000000815260040161086490611daa565b60405180910390fd5b60006008600083815260200190815260200160002090508060030160009054906101000a900460ff16156108d6576040517f08c379a00000000000000000000000000000000000000000000000000000000081526004016108cd90611e16565b60405180910390fd5b8060040160003373ffffffffffffffffffffffffffffffffffffffff1673ffffffffffffffffffffffffffffffffffffffff16815260200190815260200160002060009054906101000a900460ff1615610965576040517f08c379a000000000000000000000000000000000000000000000000000000000815260040161095c90611e82565b60405180910390fd5b60018160040160003373ffffffffffffffffffffffffffffffffffffffff1673ffffffffffffffffffffffffffffffffffffffff16815260200190815260200160002060006101000a81548160ff0219169083151502179055508060020160008154809291906109d490611cdf565b91905055507fdfc0ce25ee57679c6c4f0d41efd6d5a3eb48a4ad943c51cbe27e9df70e78af408233604051610a0a929190611ea2565b60405180910390a1600754816002015410610a2957610a28826111fe565b5b5050565b6000600560009054906101000a900473ffffffffffffffffffffffffffffffffffffffff16905090565b610a5f6110b1565b600a60008273ffffffffffffffffffffffffffffffffffffffff1673ffffffffffffffffffffffffffffffffffffffff16815260200190815260200160002060009054906101000a900460ff1615610aec576040517f08c379a0000000000000000000000000000000000000000000000000000000008152600401610ae390611f17565b60405180910390fd5b6001600a60008373ffffffffffffffffffffffffffffffffffffffff1673ffffffffffffffffffffffffffffffffffffffff16815260200190815260200160002060006101000a81548160ff0219169083151502179055507f6d05492139c5ea989514a5d2150c028041e5c087e2a39967f67dc7d2655adb8181604051610b739190611b1d565b60405180910390a150565b606060048054610b8d90611ba7565b80601f0160208091040260200160405190810160405280929190818152602001828054610bb990611ba7565b8015610c065780601f10610bdb57610100808354040283529160200191610c06565b820191906000526020600020905b815481529060010190602001808311610be957829003601f168201915b5050505050905090565b600660009054906101000a900473ffffffffffffffffffffffffffffffffffffffff1681565b600080610c41610e8c565b9050610c4e818585610fbd565b600191505092915050565b610c616110b1565b600a60008273ffffffffffffffffffffffffffffffffffffffff1673ffffffffffffffffffffffffffffffffffffffff16815260200190815260200160002060009054906101000a900460ff16610ced576040517f08c379a0000000000000000000000000000000000000000000000000000000008152600401610ce490611f83565b60405180910390fd5b6000600a60008373ffffffffffffffffffffffffffffffffffffffff1673ffffffffffffffffffffffffffffffffffffffff16815260200190815260200160002060006101000a81548160ff0219169083151502179055507f44a3cd4eb5cc5748f6169df057b1cb2ae4c383e87cd94663c430e095d4cba42481604051610d749190611b1d565b60405180910390a150565b6000600160008473ffffffffffffffffffffffffffffffffffffffff1673ffffffffffffffffffffffffffffffffffffffff16815260200190815260200160002060008373ffffffffffffffffffffffffffffffffffffffff1673ffffffffffffffffffffffffffffffffffffffff16815260200190815260200160002054905092915050565b610e0e6110b1565b600073ffffffffffffffffffffffffffffffffffffffff168173ffffffffffffffffffffffffffffffffffffffff1603610e805760006040517f1e4fbdf7000000000000000000000000000000000000000000000000000000008152600401610e779190611b1d565b60405180910390fd5b610e8981611138565b50565b600033905090565b610ea1838383600161137c565b505050565b600073ffffffffffffffffffffffffffffffffffffffff168273ffffffffffffffffffffffffffffffffffffffff1603610f185760006040517f96c6fd1e000000000000000000000000000000000000000000000000000000008152600401610f0f9190611b1d565b60405180910390fd5b610f2482600083611553565b5050565b6000610f348484610d7f565b90507fffffffffffffffffffffffffffffffffffffffffffffffffffffffffffffffff811015610fb75781811015610fa7578281836040517ffb8f41b2000000000000000000000000000000000000000000000000000000008152600401610f9e93929190611fa3565b60405180910390fd5b610fb68484848403600061137c565b5b50505050565b600073ffffffffffffffffffffffffffffffffffffffff168373ffffffffffffffffffffffffffffffffffffffff160361102f5760006040517f96c6fd1e0000000000000000000000000000000000000000000000000000000081526004016110269190611b1d565b60405180910390fd5b600073ffffffffffffffffffffffffffffffffffffffff168273ffffffffffffffffffffffffffffffffffffffff16036110a15760006040517fec442f050000000000000000000000000000000000000000000000000000000081526004016110989190611b1d565b60405180910390fd5b6110ac838383611553565b505050565b6110b9610e8c565b73ffffffffffffffffffffffffffffffffffffffff166110d7610a2d565b73ffffffffffffffffffffffffffffffffffffffff1614611136576110fa610e8c565b6040517f118cdaa700000000000000000000000000000000000000000000000000000000815260040161112d9190611b1d565b60405180910390fd5b565b6000600560009054906101000a900473ffffffffffffffffffffffffffffffffffffffff16905081600560006101000a81548173ffffffffffffffffffffffffffffffffffffffff021916908373ffffffffffffffffffffffffffffffffffffffff1602179055508173ffffffffffffffffffffffffffffffffffffffff168173ffffffffffffffffffffffffffffffffffffffff167f8be0079c531659141344cd1fd0a4f28419497f9722a3daafe3b4186f6b6457e060405160405180910390a35050565b60006008600083815260200190815260200160002090508060030160009054906101000a900460ff1615611267576040517f08c379a000000000000000000000000000000000000000000000000000000000815260040161125e90611e16565b60405180910390fd5b60018160030160006101000a81548160ff02191690831515021790555060006064605a83600101546112999190611fda565b6112a3919061204b565b905060008183600101546112b7919061207c565b90506112e78360000160009054906101000a900473ffffffffffffffffffffffffffffffffffffffff1683611778565b611313600660009054906101000a900473ffffffffffffffffffffffffffffffffffffffff1682611778565b7f2a9fb9331705ac2a27ff7b41933b6a50a986eaaf6534b2682793dfc5dd4a071a848460000160009054906101000a900473ffffffffffffffffffffffffffffffffffffffff16856001015460405161136e93929190611d27565b60405180910390a150505050565b600073ffffffffffffffffffffffffffffffffffffffff168473ffffffffffffffffffffffffffffffffffffffff16036113ee5760006040517fe602df050000000000000000000000000000000000000000000000000000000081526004016113e59190611b1d565b60405180910390fd5b600073ffffffffffffffffffffffffffffffffffffffff168373ffffffffffffffffffffffffffffffffffffffff16036114605760006040517f94280d620000000000000000000000000000000000000000000000000000000081526004016114579190611b1d565b60405180910390fd5b81600160008673ffffffffffffffffffffffffffffffffffffffff1673ffffffffffffffffffffffffffffffffffffffff16815260200190815260200160002060008573ffffffffffffffffffffffffffffffffffffffff1673ffffffffffffffffffffffffffffffffffffffff16815260200190815260200160002081905550801561154d578273ffffffffffffffffffffffffffffffffffffffff168473ffffffffffffffffffffffffffffffffffffffff167f8c5be1e5ebec7d5bd14f71427d1e84f3dd0314c0f7b2291e5b200ac8c7c3b9258460405161154491906119ca565b60405180910390a35b50505050565b600073ffffffffffffffffffffffffffffffffffffffff168373ffffffffffffffffffffffffffffffffffffffff16036115a557806002600082825461159991906120b0565b92505081905550611678565b60008060008573ffffffffffffffffffffffffffffffffffffffff1673ffffffffffffffffffffffffffffffffffffffff16815260200190815260200160002054905081811015611631578381836040517fe450d38c00000000000000000000000000000000000000000000000000000000815260040161162893929190611fa3565b60405180910390fd5b8181036000808673ffffffffffffffffffffffffffffffffffffffff1673ffffffffffffffffffffffffffffffffffffffff16815260200190815260200160002081905550505b600073ffffffffffffffffffffffffffffffffffffffff168273ffffffffffffffffffffffffffffffffffffffff16036116c1578060026000828254039250508190555061170e565b806000808473ffffffffffffffffffffffffffffffffffffffff1673ffffffffffffffffffffffffffffffffffffffff168152602001908152602001600020600082825401925050819055505b8173ffffffffffffffffffffffffffffffffffffffff168373ffffffffffffffffffffffffffffffffffffffff167fddf252ad1be2c89b69c2b068fc378daa952ba7f163c4a11628f55a4df523b3ef8360405161176b91906119ca565b60405180910390a3505050565b600073ffffffffffffffffffffffffffffffffffffffff168273ffffffffffffffffffffffffffffffffffffffff16036117ea5760006040517fec442f050000000000000000000000000000000000000000000000000000000081526004016117e19190611b1d565b60405180910390fd5b6117f660008383611553565b5050565b600081519050919050565b600082825260208201905092915050565b60005b83811015611834578082015181840152602081019050611819565b60008484015250505050565b6000601f19601f8301169050919050565b600061185c826117fa565b6118668185611805565b9350611876818560208601611816565b61187f81611840565b840191505092915050565b600060208201905081810360008301526118a48184611851565b905092915050565b600080fd5b600073ffffffffffffffffffffffffffffffffffffffff82169050919050565b60006118dc826118b1565b9050919050565b6118ec816118d1565b81146118f757600080fd5b50565b600081359050611909816118e3565b92915050565b6000819050919050565b6119228161190f565b811461192d57600080fd5b50565b60008135905061193f81611919565b92915050565b6000806040838503121561195c5761195b6118ac565b5b600061196a858286016118fa565b925050602061197b85828601611930565b9150509250929050565b60008115159050919050565b61199a81611985565b82525050565b60006020820190506119b56000830184611991565b92915050565b6119c48161190f565b82525050565b60006020820190506119df60008301846119bb565b92915050565b6000602082840312156119fb576119fa6118ac565b5b6000611a0984828501611930565b91505092915050565b600080600060608486031215611a2b57611a2a6118ac565b5b6000611a39868287016118fa565b9350506020611a4a868287016118fa565b9250506040611a5b86828701611930565b9150509250925092565b600060ff82169050919050565b611a7b81611a65565b82525050565b6000602082019050611a966000830184611a72565b92915050565b611aa5816118d1565b82525050565b6000608082019050611ac06000830187611a9c565b611acd60208301866119bb565b611ada60408301856119bb565b611ae76060830184611991565b95945050505050565b600060208284031215611b0657611b056118ac565b5b6000611b14848285016118fa565b91505092915050565b6000602082019050611b326000830184611a9c565b92915050565b60008060408385031215611b4f57611b4e6118ac565b5b6000611b5d858286016118fa565b9250506020611b6e858286016118fa565b9150509250929050565b7f4e487b7100000000000000000000000000000000000000000000000000000000600052602260045260246000fd5b60006002820490506001821680611bbf57607f821691505b602082108103611bd257611bd1611b78565b5b50919050565b7f416d6f756e74206d757374206265203e20300000000000000000000000000000600082015250565b6000611c0e601283611805565b9150611c1982611bd8565b602082019050919050565b60006020820190508181036000830152611c3d81611c01565b9050919050565b7f496e76616c6964204e474f206164647265737300000000000000000000000000600082015250565b6000611c7a601383611805565b9150611c8582611c44565b602082019050919050565b60006020820190508181036000830152611ca981611c6d565b9050919050565b7f4e487b7100000000000000000000000000000000000000000000000000000000600052601160045260246000fd5b6000611cea8261190f565b91507fffffffffffffffffffffffffffffffffffffffffffffffffffffffffffffffff8203611d1c57611d1b611cb0565b5b600182019050919050565b6000606082019050611d3c60008301866119bb565b611d496020830185611a9c565b611d5660408301846119bb565b949350505050565b7f4e6f742061207665726966696572000000000000000000000000000000000000600082015250565b6000611d94600e83611805565b9150611d9f82611d5e565b602082019050919050565b60006020820190508181036000830152611dc381611d87565b9050919050565b7f416c726561647920657865637574656400000000000000000000000000000000600082015250565b6000611e00601083611805565b9150611e0b82611dca565b602082019050919050565b60006020820190508181036000830152611e2f81611df3565b9050919050565b7f416c726561647920617070726f76656400000000000000000000000000000000600082015250565b6000611e6c601083611805565b9150611e7782611e36565b602082019050919050565b60006020820190508181036000830152611e9b81611e5f565b9050919050565b6000604082019050611eb760008301856119bb565b611ec46020830184611a9c565b9392505050565b7f416c726561647920766572696669657200000000000000000000000000000000600082015250565b6000611f01601083611805565b9150611f0c82611ecb565b602082019050919050565b60006020820190508181036000830152611f3081611ef4565b9050919050565b7f4e6f742076657269666965720000000000000000000000000000000000000000600082015250565b6000611f6d600c83611805565b9150611f7882611f37565b602082019050919050565b60006020820190508181036000830152611f9c81611f60565b9050919050565b6000606082019050611fb86000830186611a9c565b611fc560208301856119bb565b611fd260408301846119bb565b949350505050565b6000611fe58261190f565b9150611ff08361190f565b9250828202611ffe8161190f565b9150828204841483151761201557612014611cb0565b5b5092915050565b7f4e487b7100000000000000000000000000000000000000000000000000000000600052601260045260246000fd5b60006120568261190f565b91506120618361190f565b9250826120715761207061201c565b5b828204905092915050565b60006120878261190f565b91506120928361190f565b92508282039050818111156120aa576120a9611cb0565b5b92915050565b60006120bb8261190f565b91506120c68361190f565b92508282019050808211156120de576120dd611cb0565b5b9291505056fea2646970667358221220d9b5c6822025fb3ce997dba7b0227bd4eead81be096b3e636a76ad16e682ef7464736f6c634300081c0033",
  "linkReferences": {},
  "deployedLinkReferences": {}
}